{
  "address": "0x5FbDB2315678afecb367f032d93F642f64180aa3",
  "abi": [
    {
      "anonymous": false,
      "inputs": [
        {
          "indexed": false,
          "internalType": "string",
          "name": "text",
          "type": "string"
        }
      ],
      "name": "TaskAdded",
      "type": "event"
    },
    {
      "inputs": [
        {
          "internalType": "string",
          "name": "_text",
          "type": "string"
        }
      ],
      "name": "addTask",
      "outputs": [],
      "stateMutability": "nonpayable",
      "type": "function"
    },
    {
      "inputs": [
        {
          "internalType": "uint256",
          "name": "_index",
          "type": "uint256"
        }
      ],
      "name": "getTask",
      "outputs": [
        {
          "internalType": "string",
          "name": "",
          "type": "string"
        },
        {
          "internalType": "bool",
          "name": "",
          "type": "bool"
        }
      ],
      "stateMutability": "view",
      "type": "function"
    },
    {
      "inputs": [],
      "name": "getTaskCount",
      "outputs": [
        {
          "internalType": "uint256",
          "name": "",
          "type": "uint256"
        }
      ],
      "stateMutability": "view",
      "type": "function"
    },
    {
      "inputs": [
        {
          "internalType": "uint256",
          "name": "",
          "type": "uint256"
        }
      ],
      "name": "tasks",
      "outputs": [
        {
          "internalType": "string",
          "name": "text",
          "type": "string"
        },
        {
          "internalType": "bool",
          "name": "completed",
          "type": "bool"
        }
      ],
      "stateMutability": "view",
      "type": "function"
    },
    {
      "inputs": [
        {
          "internalType": "uint256",
          "name": "_index",
          "type": "uint256"
        }
      ],
      "name": "toggleTask",
      "outputs": [],
      "stateMutability": "nonpayable",
      "type": "function"
    }
  ],
  "transactionHash": "0x1dbcb57991b63933f5b77a84c769b3c9b8c838b5f81cab930afc4c87217517c5",
  "args": [],
  "numDeployments": 1,
  "solcInputHash": "6f1d4a21a5e5c85fcdbbe93b93e7a531",
  "bytecode": "0x608060405234801561001057600080fd5b50610703806100206000396000f3fe608060405234801561001057600080fd5b50600436106100575760003560e01c80631d65e77e1461005c578063613137a414610086578063672385621461009b5780638d977672146100ae578063c17a340e146100c1575b600080fd5b61006f61006a36600461040a565b6100d2565b60405161007d929190610469565b60405180910390f35b61009961009436600461040a565b6101f2565b005b6100996100a93660046104a3565b61029d565b61006f6100bc36600461040a565b61034b565b60005460405190815260200161007d565b600080546060919083106101225760405162461bcd60e51b8152602060048201526012602482015271092dcecc2d8d2c840e8c2e6d640d2dcc8caf60731b60448201526064015b60405180910390fd5b600080848154811061013657610136610554565b90600052602060002090600202019050806000018160010160009054906101000a900460ff168180546101689061056a565b80601f01602080910402602001604051908101604052809291908181526020018280546101949061056a565b80156101e15780601f106101b6576101008083540402835291602001916101e1565b820191906000526020600020905b8154815290600101906020018083116101c457829003601f168201915b505050505091509250925050915091565b60005481106102385760405162461bcd60e51b8152602060048201526012602482015271092dcecc2d8d2c840e8c2e6d640d2dcc8caf60731b6044820152606401610119565b6000818154811061024b5761024b610554565b60009182526020822060016002909202010154815460ff9091161591908390811061027857610278610554565b60009182526020909120600290910201600101805460ff191691151591909117905550565b604080518082019091528181526000602082018190528054600181018255908052815160029091027f290decd9548b62a8d60345a988386fc84ba6bc95484008f6362f93160ef3e563019081906102f490826105f3565b50602091909101516001909101805460ff19169115159190911790556040517f9c5e28549cab51b5d02e7eee4fd0f6d00b70fa92e37de0a00d5b6a3c1400a927906103409083906106b3565b60405180910390a150565b6000818154811061035b57600080fd5b906000526020600020906002020160009150905080600001805461037e9061056a565b80601f01602080910402602001604051908101604052809291908181526020018280546103aa9061056a565b80156103f75780601f106103cc576101008083540402835291602001916103f7565b820191906000526020600020905b8154815290600101906020018083116103da57829003601f168201915b5050506001909301549192505060ff1682565b60006020828403121561041c57600080fd5b5035919050565b6000815180845260005b818110156104495760208185018101518683018201520161042d565b506000602082860101526020601f19601f83011685010191505092915050565b60408152600061047c6040830185610423565b905082151560208301529392505050565b634e487b7160e01b600052604160045260246000fd5b6000602082840312156104b557600080fd5b813567ffffffffffffffff808211156104cd57600080fd5b818401915084601f8301126104e157600080fd5b8135818111156104f3576104f361048d565b604051601f8201601f19908116603f0116810190838211818310171561051b5761051b61048d565b8160405282815287602084870101111561053457600080fd5b826020860160208301376000928101602001929092525095945050505050565b634e487b7160e01b600052603260045260246000fd5b600181811c9082168061057e57607f821691505b60208210810361059e57634e487b7160e01b600052602260045260246000fd5b50919050565b601f8211156105ee57600081815260208120601f850160051c810160208610156105cb5750805b601f850160051c820191505b818110156105ea578281556001016105d7565b5050505b505050565b815167ffffffffffffffff81111561060d5761060d61048d565b6106218161061b845461056a565b846105a4565b602080601f831160018114610656576000841561063e5750858301515b600019600386901b1c1916600185901b1785556105ea565b600085815260208120601f198616915b8281101561068557888601518255948401946001909101908401610666565b50858210156106a35787850151600019600388901b60f8161c191681555b5050505050600190811b01905550565b6020815260006106c66020830184610423565b939250505056fea2646970667358221220eb39749c621e8bcd73261820c618bc0f7c5abb6295acf9a4c2eb99d1b9980bdd64736f6c63430008140033",
  "devdoc": {
    "kind": "dev",
    "methods": {},
    "version": 1
  },
  "userdoc": {
    "kind": "user",
    "methods": {},
    "version": 1
  },
  "storageLayout": {
    "storage": [
      {
        "astId": 10,
        "contract": "contracts/Todo.sol:Todo",
        "label": "tasks",
        "offset": 0,
        "slot": "0",
        "type": "t_array(t_struct(Task)6_storage)dyn_storage"
      }
    ],
    "types": {
      "t_array(t_struct(Task)6_storage)dyn_storage": {
        "base": "t_struct(Task)6_storage",
        "encoding": "dynamic_array",
        "label": "struct Todo.Task[]",
        "numberOfBytes": "32"
      },
      "t_bool": {
        "encoding": "inplace",
        "label": "bool",
        "numberOfBytes": "1"
      },
      "t_string_storage": {
        "encoding": "bytes",
        "label": "string",
        "numberOfBytes": "32"
      },
      "t_struct(Task)6_storage": {
        "encoding": "inplace",
        "label": "struct Todo.Task",
        "members": [
          {
            "astId": 3,
            "contract": "contracts/Todo.sol:Todo",
            "label": "text",
            "offset": 0,
            "slot": "0",
            "type": "t_string_storage"
          },
          {
            "astId": 5,
            "contract": "contracts/Todo.sol:Todo",
            "label": "completed",
            "offset": 0,
            "slot": "1",
            "type": "t_bool"
          }
        ],
        "numberOfBytes": "64"
      }
    }
  }
}